{
  "_format": "hh-sol-artifact-1",
  "contractName": "District4",
  "sourceName": "contracts/votingRights.sol",
  "abi": [
    {
      "inputs": [],
      "stateMutability": "nonpayable",
      "type": "constructor"
    },
    {
      "inputs": [],
      "name": "getActualVoters",
      "outputs": [
        {
          "internalType": "int256",
          "name": "",
          "type": "int256"
        }
      ],
      "stateMutability": "nonpayable",
      "type": "function"
    },
    {
      "inputs": [],
      "name": "getRegisteredVoters",
      "outputs": [
        {
          "internalType": "int256",
          "name": "",
          "type": "int256"
        }
      ],
      "stateMutability": "nonpayable",
      "type": "function"
    },
    {
      "inputs": [
        {
          "internalType": "address",
          "name": "",
          "type": "address"
        }
      ],
      "name": "ipAddressUsed",
      "outputs": [
        {
          "internalType": "string",
          "name": "",
          "type": "string"
        }
      ],
      "stateMutability": "view",
      "type": "function"
    },
    {
      "inputs": [
        {
          "internalType": "uint256",
          "name": "_driversLicence",
          "type": "uint256"
        },
        {
          "internalType": "string",
          "name": "_name",
          "type": "string"
        },
        {
          "internalType": "string",
          "name": "_ipAddress",
          "type": "string"
        }
      ],
      "name": "register",
      "outputs": [
        {
          "internalType": "int256",
          "name": "",
          "type": "int256"
        }
      ],
      "stateMutability": "nonpayable",
      "type": "function"
    },
    {
      "inputs": [
        {
          "internalType": "address",
          "name": "",
          "type": "address"
        }
      ],
      "name": "registeredAddress",
      "outputs": [
        {
          "internalType": "uint256",
          "name": "",
          "type": "uint256"
        }
      ],
      "stateMutability": "view",
      "type": "function"
    },
    {
      "inputs": [
        {
          "internalType": "string",
          "name": "_ipAddress",
          "type": "string"
        },
        {
          "internalType": "string",
          "name": "_candidateName",
          "type": "string"
        }
      ],
      "name": "vote",
      "outputs": [
        {
          "internalType": "int256",
          "name": "",
          "type": "int256"
        }
      ],
      "stateMutability": "nonpayable",
      "type": "function"
    },
    {
      "inputs": [
        {
          "internalType": "string",
          "name": "",
          "type": "string"
        }
      ],
      "name": "votesReceived",
      "outputs": [
        {
          "internalType": "uint256",
          "name": "",
          "type": "uint256"
        }
      ],
      "stateMutability": "view",
      "type": "function"
    },
    {
      "inputs": [
        {
          "internalType": "address",
          "name": "",
          "type": "address"
        }
      ],
      "name": "votingRegistery",
      "outputs": [
        {
          "internalType": "address",
          "name": "eth_addr",
          "type": "address"
        },
        {
          "internalType": "uint256",
          "name": "driversLicence",
          "type": "uint256"
        },
        {
          "internalType": "string",
          "name": "name",
          "type": "string"
        },
        {
          "internalType": "string",
          "name": "ipAddress",
          "type": "string"
        },
        {
          "internalType": "string",
          "name": "candidateName",
          "type": "string"
        }
      ],
      "stateMutability": "view",
      "type": "function"
    }
  ],
  "bytecode": "0x608060405234801561001057600080fd5b50600080819055506000600181905550610f6e8061002f6000396000f3fe608060405234801561001057600080fd5b50600436106100885760003560e01c8063975fc2241161005b578063975fc22414610308578063ad1def42146103c5578063e8d5940d1461041d578063fcea4d3a1461058357610088565b80632bc4a6e71461008d5780633539e848146100ab5780638d28dda8146100c95780638d4b44d914610239575b600080fd5b61009561073c565b6040518082815260200191505060405180910390f35b6100b3610745565b6040518082815260200191505060405180910390f35b610223600480360360608110156100df57600080fd5b81019080803590602001909291908035906020019064010000000081111561010657600080fd5b82018360208201111561011857600080fd5b8035906020019184600183028401116401000000008311171561013a57600080fd5b91908080601f016020809104026020016040519081016040528093929190818152602001838380828437600081840152601f19601f8201169050808301925050505050505091929192908035906020019064010000000081111561019d57600080fd5b8201836020820111156101af57600080fd5b803590602001918460018302840111640100000000831117156101d157600080fd5b91908080601f016020809104026020016040519081016040528093929190818152602001838380828437600081840152601f19601f82011690508083019250505050505050919291929050505061074f565b6040518082815260200191505060405180910390f35b6102f26004803603602081101561024f57600080fd5b810190808035906020019064010000000081111561026c57600080fd5b82018360208201111561027e57600080fd5b803590602001918460018302840111640100000000831117156102a057600080fd5b91908080601f016020809104026020016040519081016040528093929190818152602001838380828437600081840152601f19601f820116905080830192505050505050509192919290505050610946565b6040518082815260200191505060405180910390f35b61034a6004803603602081101561031e57600080fd5b81019080803573ffffffffffffffffffffffffffffffffffffffff169060200190929190505050610974565b6040518080602001828103825283818151815260200191508051906020019080838360005b8381101561038a57808201518184015260208101905061036f565b50505050905090810190601f1680156103b75780820380516001836020036101000a031916815260200191505b509250505060405180910390f35b610407600480360360208110156103db57600080fd5b81019080803573ffffffffffffffffffffffffffffffffffffffff169060200190929190505050610a24565b6040518082815260200191505060405180910390f35b61056d6004803603604081101561043357600080fd5b810190808035906020019064010000000081111561045057600080fd5b82018360208201111561046257600080fd5b8035906020019184600183028401116401000000008311171561048457600080fd5b91908080601f016020809104026020016040519081016040528093929190818152602001838380828437600081840152601f19601f820116905080830192505050505050509192919290803590602001906401000000008111156104e757600080fd5b8201836020820111156104f957600080fd5b8035906020019184600183028401116401000000008311171561051b57600080fd5b91908080601f016020809104026020016040519081016040528093929190818152602001838380828437600081840152601f19601f820116905080830192505050505050509192919290505050610a3c565b6040518082815260200191505060405180910390f35b6105c56004803603602081101561059957600080fd5b81019080803573ffffffffffffffffffffffffffffffffffffffff169060200190929190505050610c38565b604051808673ffffffffffffffffffffffffffffffffffffffff168152602001858152602001806020018060200180602001848103845287818151815260200191508051906020019080838360005b8381101561062f578082015181840152602081019050610614565b50505050905090810190601f16801561065c5780820380516001836020036101000a031916815260200191505b50848103835286818151815260200191508051906020019080838360005b8381101561069557808201518184015260208101905061067a565b50505050905090810190601f1680156106c25780820380516001836020036101000a031916815260200191505b50848103825285818151815260200191508051906020019080838360005b838110156106fb5780820151818401526020810190506106e0565b50505050905090810190601f1680156107285780820380516001836020036101000a031916815260200191505b509850505050505050505060405180910390f35b60008054905090565b6000600154905090565b6000610759610e56565b6040518060a001604052803373ffffffffffffffffffffffffffffffffffffffff16815260200186815260200185815260200184815260200160405180602001604052806000815250815250905080600260003373ffffffffffffffffffffffffffffffffffffffff1673ffffffffffffffffffffffffffffffffffffffff16815260200190815260200160002060008201518160000160006101000a81548173ffffffffffffffffffffffffffffffffffffffff021916908373ffffffffffffffffffffffffffffffffffffffff160217905550602082015181600101556040820151816002019080519060200190610854929190610e9b565b506060820151816003019080519060200190610871929190610e9b565b50608082015181600401908051906020019061088e929190610e9b565b509050506001600360003373ffffffffffffffffffffffffffffffffffffffff1673ffffffffffffffffffffffffffffffffffffffff16815260200190815260200160002050506001600080828254019250508190555082600460003373ffffffffffffffffffffffffffffffffffffffff1673ffffffffffffffffffffffffffffffffffffffff1681526020019081526020016000209080519060200190610938929190610e9b565b506000549150509392505050565b6005818051602081018201805184825260208301602085012081835280955050505050506000915090505481565b60046020528060005260406000206000915090508054600181600116156101000203166002900480601f016020809104026020016040519081016040528092919081815260200182805460018160011615610100020316600290048015610a1c5780601f106109f157610100808354040283529160200191610a1c565b820191906000526020600020905b8154815290600101906020018083116109ff57829003601f168201915b505050505081565b60036020528060005260406000206000915090505481565b60008280519060200120600460003373ffffffffffffffffffffffffffffffffffffffff1673ffffffffffffffffffffffffffffffffffffffff1681526020019081526020016000206040518082805460018160011615610100020316600290048015610ae05780601f10610abe576101008083540402835291820191610ae0565b820191906000526020600020905b815481529060010190602001808311610acc575b5050915050604051809103902014610af757600080fd5b82600260003373ffffffffffffffffffffffffffffffffffffffff1673ffffffffffffffffffffffffffffffffffffffff1681526020019081526020016000206003019080519060200190610b4d929190610e9b565b5081600260003373ffffffffffffffffffffffffffffffffffffffff1673ffffffffffffffffffffffffffffffffffffffff1681526020019081526020016000206004019080519060200190610ba4929190610e9b565b5060016005836040518082805190602001908083835b60208310610bdd5780518252602082019150602081019050602083039250610bba565b6001836020036101000a03801982511681845116808217855250505050505090500191505090815260200160405180910390206000828254019250508190555060018060008282540192505081905550600154905092915050565b60026020528060005260406000206000915090508060000160009054906101000a900473ffffffffffffffffffffffffffffffffffffffff1690806001015490806002018054600181600116156101000203166002900480601f016020809104026020016040519081016040528092919081815260200182805460018160011615610100020316600290048015610d105780601f10610ce557610100808354040283529160200191610d10565b820191906000526020600020905b815481529060010190602001808311610cf357829003601f168201915b505050505090806003018054600181600116156101000203166002900480601f016020809104026020016040519081016040528092919081815260200182805460018160011615610100020316600290048015610dae5780601f10610d8357610100808354040283529160200191610dae565b820191906000526020600020905b815481529060010190602001808311610d9157829003601f168201915b505050505090806004018054600181600116156101000203166002900480601f016020809104026020016040519081016040528092919081815260200182805460018160011615610100020316600290048015610e4c5780601f10610e2157610100808354040283529160200191610e4c565b820191906000526020600020905b815481529060010190602001808311610e2f57829003601f168201915b5050505050905085565b6040518060a00160405280600073ffffffffffffffffffffffffffffffffffffffff168152602001600081526020016060815260200160608152602001606081525090565b828054600181600116156101000203166002900490600052602060002090601f016020900481019282601f10610edc57805160ff1916838001178555610f0a565b82800160010185558215610f0a579182015b82811115610f09578251825591602001919060010190610eee565b5b509050610f179190610f1b565b5090565b5b80821115610f34576000816000905550600101610f1c565b509056fea26469706673582212208237b9962b1c8cb6b11bea0377e47af1c303505274876f7c7ecdb7b3533a399064736f6c63430007030033",
  "linkReferences": {},
  "deployedLinkReferences": {}
}